:100000000C945E000C9486000C9486000C94860080
:100010000C9486000C9486000C9486000C94860048
:100020000C9486000C9486000C9486000C94860038
:100030000C9486000C9486000C9486000C94860028
:100040000C9453020C9486000C94C3020C949D02F1
:100050000C9486000C9486000C9486000C94860008
:100060000C9486000C948600000000080002010039
:100070000003040700000000000000000000000072
:10008000250028002B0000000000240027002A0083
:10009000040404040404040402020202020203032E
:1000A0000303030301020408102040800102040836
:1000B0001020010204081020F502DB0411241FBEE9
:1000C000CFEFD8E0DEBFCDBF21E0A2E2B1E001C0BA
:1000D0001D92A23DB207E1F711E0A0E0B1E0E2E538
:1000E000FEE002C005900D92A232B107D9F710E0F0
:1000F000CDE5D0E004C02197FE010E941B05CC3560
:10010000D107C9F70E9469030C941C070C940000E6
:1001100090E0FC01EC55FF4F249180579F4FFC016C
:100120008491882399F090E0880F991FFC01EA5789
:10013000FF4FA591B491FC01E458FF4F8591949134
:100140008FB7F894EC91E22BEC938FBF089590E079
:10015000FC01E859FF4F2491FC01EC55FF4F34910D
:10016000FC01E057FF4FE491EE23C9F0222339F060
:10017000233001F1A8F4213019F1223029F1F0E007
:10018000EE0FFF1FE458FF4FA591B4918FB7F8947D
:10019000EC91611126C030953E233C938FBF0895AA
:1001A0002730A9F02830C9F0243049F78091800029
:1001B0008F7D03C0809180008F7780938000DFCF98
:1001C00084B58F7784BDDBCF84B58F7DFBCF8091E5
:1001D000B0008F778093B000D2CF8091B0008F7D38
:1001E000F9CF3E2BDACF3FB7F89480912701909159
:1001F0002801A0912901B0912A0126B5A89B05C02C
:100200002F3F19F00196A11DB11D3FBFBA2FA92F95
:10021000982F8827BC01CD01620F711D811D911D92
:1002200042E0660F771F881F991F4A95D1F70895FE
:10023000AF92BF92CF92DF92EF92FF920F931F93F4
:10024000CF93DF936C017B018B01040F151FEB0132
:100250005E01AE18BF08C017D10759F06991D601E9
:10026000ED91FC910190F081E02DC6010995892B5B
:1002700079F7C501DF91CF911F910F91FF90EF901A
:10028000DF90CF90BF90AF900895FC01538D448DC7
:10029000252F30E0842F90E0821B930B541710F031
:1002A000CF96089501970895FC01918D828D98173E
:1002B00061F0A28DAE0FBF2FB11D5D968C91928D16
:1002C0009F5F9F73928F90E008958FEF9FEF089547
:1002D000FC01918D828D981731F0828DE80FF11D10
:1002E000858D90E008958FEF9FEF0895FC01918D2B
:1002F000228D892F90E0805C9F4F821B91098F7324
:10030000992708958BE291E00E94760121E0892BE4
:1003100009F420E0822F089580E090E0892B29F0F5
:100320000E94820181110C9400000895FC01A48DAB
:10033000A80FB92FB11DA35ABF4F2C91848D90E007
:1003400001968F739927848FA689B7892C93A089EA
:10035000B1898C91837080648C93938D848D981374
:1003600006C00288F389E02D80818F7D8083089507
:10037000EF92FF920F931F93CF93DF93EC0181E0F5
:10038000888F9B8D8C8D98131AC0E889F98980819C
:1003900085FF15C09FB7F894EE89FF896083E889CF
:1003A000F98980818370806480839FBF81E090E0C1
:1003B000DF91CF911F910F91FF90EF900895F62E4E
:1003C0000B8D10E00F5F1F4F0F731127E02E8C8DE8
:1003D0008E110CC00FB607FCFACFE889F98980812D
:1003E00085FFF5CFCE010E949601F1CFEB8DEC0F8A
:1003F000FD2FF11DE35AFF4FF0829FB7F8940B8F4A
:10040000EA89FB8980818062CFCFCF93DF93EC01B3
:10041000888D8823B9F0AA89BB89E889F9898C91EC
:1004200085FD03C0808186FD0DC00FB607FCF7CFA8
:100430008C9185FFF2CF808185FFEDCFCE010E94A8
:100440009601E9CFDF91CF910895CF93DF93EC012F
:100450008091C8019091C901009759F02091CA017B
:100460003091CB012C173D0720F081E0DF91CF9137
:100470000895BE016F5F7F4F0E944606009789F086
:100480009093C9018093C801D093CB01C093CA0156
:100490002091CC013091CD01232B39F7FC01108242
:1004A000E4CF80E0E3CF1F920F920FB60F9211249A
:1004B0002F933F938F939F93AF93BF93809123018B
:1004C00090912401A0912501B09126013091220143
:1004D00023E0230F2D3758F50196A11DB11D209360
:1004E00022018093230190932401A0932501B093CE
:1004F00026018091270190912801A0912901B091B6
:100500002A010196A11DB11D809327019093280116
:10051000A0932901B0932A01BF91AF919F918F9130
:100520003F912F910F900FBE0F901F90189526E8C6
:10053000230F0296A11DB11DD2CF1F920F920FB6AD
:100540000F9211242F933F934F935F936F937F9359
:100550008F939F93AF93BF93EF93FF938BE291E0C1
:100560000E949601FF91EF91BF91AF919F918F9162
:100570007F916F915F914F913F912F910F900FBE9F
:100580000F901F9018951F920F920FB60F92112483
:100590002F938F939F93EF93FF93E0913B01F09103
:1005A0003C018081E0914101F091420182FD1BC03C
:1005B0009081809144018F5F8F7320914501821754
:1005C00041F0E0914401F0E0E55DFE4F958F8093AE
:1005D0004401FF91EF919F918F912F910F900FBE4A
:1005E0000F901F9018958081F4CF10922E011092D9
:1005F0002D0188EE93E0A0E0B0E080932F0190936E
:100600003001A0933101B09332018AE091E09093E0
:100610002C0180932B0185EC90E09093380180931E
:10062000370184EC90E090933A018093390180EC9B
:1006300090E090933C0180933B0181EC90E090939B
:100640003E0180933D0182EC90E0909340018093C5
:100650003F0186EC90E0909342018093410110921B
:1006600044011092450110924601109247011092E8
:10067000C9011092C8011092CB011092CA011092C8
:10068000CD011092CC0190E080E00E9425022091E3
:10069000C8013091C901811113C02115310519F02C
:1006A000C9010E94BD051092C9011092C8011092A3
:1006B000CD011092CC011092CB011092CA01089585
:1006C0001092CD011092CC016AE171E0C9010C9445
:1006D0001507CF93DF9300D0CDB7DEB7789484B5FC
:1006E000826084BD84B5816084BD85B5826085BD2E
:1006F00085B5816085BD80916E00816080936E00BC
:1007000010928100809181008260809381008091AD
:10071000810081608093810080918000816080935E
:1007200080008091B10084608093B1008091B0001E
:1007300081608093B00080917A00846080937A0019
:1007400080917A00826080937A0080917A00816043
:1007500080937A0080917A00806880937A0010926A
:10076000C1008DE00E9488008CE00E9488008BE030
:100770000E9488008AE00E94880089E00E94880028
:10078000E0913B01F0913C0182E08083E0913701F0
:10079000F09138011082E0913901F0913A018FEC2B
:1007A000808310924301E0913F01F091400186E087
:1007B0008083E0913D01F0913E01808180618083E2
:1007C000E0913D01F0913E01808188608083E0915D
:1007D0003D01F0913E01808180688083E0913D0180
:1007E000F0913E0180818F7D808390E0E92E90E042
:1007F000F92E8BE291E00E947601892B09F449C021
:100800000E94F3002B013C018AE0882E912CA12C40
:10081000B12C0E94F3006419750986099709683E96
:10082000734081059105A8F321E0821A9108A1087F
:10083000B10888EE480E83E0581E611C711C8114BB
:100840009104A104B10429F78BE291E00E945401C4
:1008500089831A820091CC011091CD010F5F1F4F47
:10086000C8010E942502882321F22091C8013091FD
:10087000C9018091CC019091CD01BE016F5F7F4F86
:10088000820F931F0E9415071093CD010093CC0196
:10089000B0CF4091CC015091CD014115510509F4E3
:1008A00074C06091C8017091C9018BE291E00E940F
:1008B000180142E050E068E171E08BE291E00E94B3
:1008C00018018091CC019091CD01892BF1F06BE161
:1008D00071E08091C8019091C9010E940C07892B99
:1008E000A1F461E08DE00E94A70061E08CE00E942D
:1008F000A70061E08BE00E94A70061E08AE00E940F
:10090000A70061E089E00E94A7008091CC0190914E
:10091000CD01892BF1F06EE171E08091C8019091D9
:10092000C9010E940C07892BA1F460E08DE00E94B0
:10093000A70060E08CE00E94A70060E08BE00E94CE
:10094000A70060E08AE00E94A70060E089E00E94C2
:10095000A70090E080E00E9425022091C80130911C
:10096000C90181111EC02115310519F0C9010E946C
:10097000BD051092C9011092C8011092CD011092CC
:10098000CC011092CB011092CA01E114F10409F4D8
:1009900030CF0E948201882309F42BCF0E940000EF
:1009A00028CF1092CD011092CC016AE171E0C9010B
:1009B0000E941507EACF8091C8019091C901009764
:1009C00011F00C94BD0508952F923F924F925F92C3
:1009D0006F927F928F929F92AF92BF92CF92DF924F
:1009E000EF92FF920F931F93CF93DF93CDB7DEB7B4
:1009F000CA1BDB0B0FB6F894DEBF0FBECDBF099448
:100A00002A88398848885F846E847D848C849B849E
:100A1000AA84B984C884DF80EE80FD800C811B81AC
:100A2000AA81B981CE0FD11D0FB6F894DEBF0FBEDB
:100A3000CDBFED010895EE0FFF1F0590F491E02D5D
:100A400009940F931F93CF93DF938230910510F495
:100A500082E090E0E091D001F091D10130E020E01F
:100A6000B0E0A0E0309799F42115310509F44AC0AF
:100A7000281B390B24303105D8F58A819B816115FB
:100A8000710589F1FB0193838283FE0111C04081CE
:100A900051810281138148175907E0F0481759071F
:100AA00099F4109761F012960C93129713961C9379
:100AB0003296CF01DF91CF911F910F91089500934E
:100AC000D0011093D101F4CF2115310551F0421717
:100AD000530738F0A901DB019A01BD01DF01F801DC
:100AE000C1CFEF01F9CF9093D1018093D001CDCF49
:100AF000FE01E20FF31F8193919322503109398354
:100B00002883D7CF2091CE013091CF01232B41F400
:100B100020910201309103013093CF012093CE0147
:100B200020910001309101012115310541F42DB7CB
:100B30003EB74091040150910501241B350BE09113
:100B4000CE01F091CF01E217F307A0F42E1B3F0B6B
:100B50002817390778F0AC014E5F5F4F241735072F
:100B600048F04E0F5F1F5093CF014093CE01819309
:100B700091939FCFF0E0E0E09CCFCF93DF9300977D
:100B8000E9F0FC01329713821282A091D001B0915A
:100B9000D101ED0130E020E01097A1F420813181F6
:100BA000820F931F2091CE013091CF012817390772
:100BB00009F061C0F093CF01E093CE01DF91CF91B6
:100BC0000895EA01CE17DF07E8F54A815B819E01AF
:100BD00041155105B1F7E901FB83EA834991599128
:100BE000C40FD51FEC17FD0761F480819181029637
:100BF000840F951FE90199838883828193819B8368
:100C00008A83F0E0E0E012968D919C911397009713
:100C1000B9F52D913C911197CD010296820F931F4A
:100C20002091CE013091CF012817390739F630973E
:100C300051F51092D1011092D001B093CF01A09341
:100C4000CE01BCCFD383C28340815181840F951FD5
:100C5000C817D90761F44E5F5F4F88819981480FAB
:100C6000591F518340838A819B81938382832115FD
:100C7000310509F0B0CFF093D101E093D0019ECFC0
:100C8000FD01DC01C0CF13821282D7CFB0E0A0E01B
:100C9000ECE4F6E00C94E6048C01009751F4CB01EF
:100CA0000E9421058C01C801CDB7DEB7E0E10C94AC
:100CB0000205FC01E60FF71F9C0122503109E217E3
:100CC000F30708F49DC0D901CD91DC911197C617A7
:100CD000D70798F0C530D10530F3CE0104978617B9
:100CE000970708F3C61BD70B2297C193D1936D9337
:100CF0007C93CF010E94BD05D6CF5B01AC1ABD0A23
:100D00004C018C0E9D1EA091D001B091D101512CAF
:100D1000412CF12CE12C109731F58091CE0190916E
:100D2000CF018815990509F05CC04616570608F0F2
:100D300058C08091000190910101009741F48DB756
:100D40009EB74091040150910501841B950BE81753
:100D5000F90708F055C0F093CF01E093CE01F901F7
:100D600071836083A0CF8D919C91119712966C90A6
:100D7000129713967C901397A815B90559F56C0135
:100D800042E0C40ED11CCA14DB0420F1AC014A19A4
:100D90005B09DA011296159780F0628273825183A3
:100DA0004083D9016D937C93E114F10471F0D70174
:100DB0001396FC93EE93129776CF22968C0F9D1F7D
:100DC000F90191838083F301EFCFF093D101E09398
:100DD000D00169CF4816590608F42C017D01D301D2
:100DE0009ACFCB010E9421057C01009749F0AE010A
:100DF000B8010E940307C8010E94BD05870153CFB7
:100E000010E000E050CFFB01DC0102C001900D9228
:100E100041505040D8F70895FB01DC018D910190BD
:100E200080190110D9F3990B0895FB01DC010190A1
:100E30000D920020E1F7089510E0CDE5D0E004C068
:100E4000FE010E941B052196CE35D107C9F7F89403
:020E5000FFCFD2
:100E52000000D201800000000000B8011801450125
:100E620005027601540168010D0A006F6E006F667B
:020E7200660018
:00000001FF
